{
  "contractName": "KVStore",
  "abi": [
    {
      "inputs": [
        {
          "internalType": "bytes32",
          "name": "key",
          "type": "bytes32"
        },
        {
          "internalType": "bytes32",
          "name": "value",
          "type": "bytes32"
        }
      ],
      "name": "put",
      "outputs": [],
      "stateMutability": "nonpayable",
      "type": "function"
    },
    {
      "inputs": [
        {
          "internalType": "bytes32[]",
          "name": "keys",
          "type": "bytes32[]"
        },
        {
          "internalType": "bytes32[]",
          "name": "values",
          "type": "bytes32[]"
        }
      ],
      "name": "putBatch",
      "outputs": [],
      "stateMutability": "nonpayable",
      "type": "function"
    },
    {
      "inputs": [
        {
          "internalType": "bytes32",
          "name": "key",
          "type": "bytes32"
        }
      ],
      "name": "remove",
      "outputs": [],
      "stateMutability": "nonpayable",
      "type": "function"
    },
    {
      "inputs": [],
      "name": "tableScan",
      "outputs": [
        {
          "internalType": "bytes32[]",
          "name": "keys",
          "type": "bytes32[]"
        },
        {
          "internalType": "bytes32[]",
          "name": "values",
          "type": "bytes32[]"
        }
      ],
      "stateMutability": "view",
      "type": "function"
    },
    {
      "inputs": [
        {
          "internalType": "bytes32",
          "name": "key",
          "type": "bytes32"
        }
      ],
      "name": "get",
      "outputs": [
        {
          "internalType": "bytes32",
          "name": "value",
          "type": "bytes32"
        },
        {
          "internalType": "uint256",
          "name": "blocknumber",
          "type": "uint256"
        }
      ],
      "stateMutability": "view",
      "type": "function"
    },
    {
      "inputs": [
        {
          "internalType": "bytes32[]",
          "name": "keys",
          "type": "bytes32[]"
        }
      ],
      "name": "getBatch",
      "outputs": [
        {
          "internalType": "bytes32[]",
          "name": "values",
          "type": "bytes32[]"
        },
        {
          "internalType": "uint256[]",
          "name": "blocknumbers",
          "type": "uint256[]"
        }
      ],
      "stateMutability": "view",
      "type": "function"
    },
    {
      "inputs": [],
      "name": "drop",
      "outputs": [],
      "stateMutability": "nonpayable",
      "type": "function"
    }
  ],
  "bytecode": "0x608060405234801561001057600080fd5b50610a92806100206000396000f3fe608060405234801561001057600080fd5b506004361061007d5760003560e01c806395bc26731161005b57806395bc2673146102585780639b36675c14610286578063b3055e26146103d2578063f751cd8f146104795761007d565b80634c6670801461008257806350a5fd68146100ba5780638eaa6ac01461020f575b600080fd5b6100b86004803603604081101561009857600080fd5b810190808035906020019092919080359060200190929190505050610483565b005b610170600480360360208110156100d057600080fd5b81019080803590602001906401000000008111156100ed57600080fd5b8201836020820111156100ff57600080fd5b8035906020019184602083028401116401000000008311171561012157600080fd5b919080806020026020016040519081016040528093929190818152602001838360200280828437600081840152601f19601f820116905080830192505050505050509192919290505050610519565b604051808060200180602001838103835285818151815260200191508051906020019060200280838360005b838110156101b757808201518184015260208101905061019c565b50505050905001838103825284818151815260200191508051906020019060200280838360005b838110156101f95780820151818401526020810190506101de565b5050505090500194505050505060405180910390f35b61023b6004803603602081101561022557600080fd5b8101908080359060200190929190505050610665565b604051808381526020018281526020019250505060405180910390f35b6102846004803603602081101561026e57600080fd5b81019080803590602001909291905050506106ca565b005b6103d06004803603604081101561029c57600080fd5b81019080803590602001906401000000008111156102b957600080fd5b8201836020820111156102cb57600080fd5b803590602001918460208302840111640100000000831117156102ed57600080fd5b919080806020026020016040519081016040528093929190818152602001838360200280828437600081840152601f19601f8201169050808301925050505050505091929192908035906020019064010000000081111561034d57600080fd5b82018360208201111561035f57600080fd5b8035906020019184602083028401116401000000008311171561038157600080fd5b919080806020026020016040519081016040528093929190818152602001838360200280828437600081840152601f19601f8201169050808301925050505050505091929192905050506107ec565b005b6103da6108eb565b604051808060200180602001838103835285818151815260200191508051906020019060200280838360005b83811015610421578082015181840152602081019050610406565b50505050905001838103825284818151815260200191508051906020019060200280838360005b83811015610463578082015181840152602081019050610448565b5050505090500194505050505060405180910390f35b610481610a26565b005b61048b610a3f565b604051806040016040528043815260200183815250905060008060008581526020019081526020016000206000015414156104ea5760018390806001815401808255809150506001900390600052602060002001600090919091909150555b806000808581526020019081526020016000206000820151816000015560208201518160010155905050505050565b6060806000835190508067ffffffffffffffff8111801561053957600080fd5b506040519080825280602002602001820160405280156105685781602001602082028036833780820191505090505b5092508067ffffffffffffffff8111801561058257600080fd5b506040519080825280602002602001820160405280156105b15781602001602082028036833780820191505090505b50915060008090505b81811015610658576105ca610a3f565b6000808784815181106105d957fe5b60200260200101518152602001908152602001600020604051806040016040529081600082015481526020016001820154815250509050806020015185838151811061062157fe5b602002602001018181525050806000015184838151811061063e57fe5b6020026020010181815250505080806001019150506105ba565b5082829250925050915091565b600080610670610a3f565b6000808581526020019081526020016000206040518060400160405290816000820154815260200160018201548152505090508060200151925080600001519150600082116106be57600080fd5b82829250925050915091565b6000600180549050905060007fffffffffffffffffffffffffffffffffffffffffffffffffffffffffffffffff905060008090505b8281101561073b57836001828154811061071557fe5b9060005260206000200154141561072e5780915061073b565b80806001019150506106ff565b507fffffffffffffffffffffffffffffffffffffffffffffffffffffffffffffffff81141561076b5750506107e9565b60018083038154811061077a57fe5b90600052602060002001546001828154811061079257fe5b906000526020600020018190555060018054806107ab57fe5b600190038181906000526020600020016000905590556000808481526020019081526020016000206000808201600090556001820160009055505050505b50565b60008090505b82518110156108e657610803610a3f565b604051806040016040528043815260200184848151811061082057fe5b60200260200101518152509050600080600086858151811061083e57fe5b6020026020010151815260200190815260200160002060000154141561089b57600184838151811061086c57fe5b602002602001015190806001815401808255809150506001900390600052602060002001600090919091909150555b806000808685815181106108ab57fe5b6020026020010151815260200190815260200160002060008201518160000155602082015181600101559050505080806001019150506107f2565b505050565b606080600060018054905090508067ffffffffffffffff8111801561090f57600080fd5b5060405190808252806020026020018201604052801561093e5781602001602082028036833780820191505090505b5092508067ffffffffffffffff8111801561095857600080fd5b506040519080825280602002602001820160405280156109875781602001602082028036833780820191505090505b50915060008090505b81811015610a1a57600181815481106109a557fe5b90600052602060002001548482815181106109bc57fe5b602002602001018181525050600080600183815481106109d857fe5b9060005260206000200154815260200190815260200160002060010154838281518110610a0157fe5b6020026020010181815250508080600101915050610990565b50828292509250509091565b3373ffffffffffffffffffffffffffffffffffffffff16ff5b60405180604001604052806000815260200160008019168152509056fea2646970667358221220f9a35d969f60257c0c642193e2f46ff7e75843a9d00bbd4ad0913359559f4d1464736f6c63430006080033",
  "immutableReferences": {},
  "source": "pragma solidity ^0.6.8;\n\n/// @author melhindi\n/// @title A key-value storage contract with a batch interface\ncontract KVStore {\n\n    // tightly packed struct\n    struct Value\n    {\n        uint blocknumber; // indicates when value was written\n        bytes32 value;\n    }\n\n    mapping(bytes32 => Value) private data; // data store\n    bytes32[] internal keyList;              // list of keys of data\n\n    /// Store the pair key:value in the storage.\n    /// @param key the new key to store\n    /// @param value the value corresponding to the key\n    /// @dev stores the number in the state variable `data`\n    function put(\n        bytes32 key,\n        bytes32 value)\n    public\n    {\n        Value memory v = Value(block.number,value);\n\n        if(data[key].blocknumber == 0) {\n            keyList.push(key);\n        }\n\n        // persist data in blockchain\n        data[key] = v;\n    }\n\n    /// Stores multiplie key:value pairs in the storage.\n    /// @param keys An array of keys to store\n    /// @param values An array of values correpsonding to the keys,\n    ///  thereby keys[i] should correspond to values[i]\n    /// @dev stores the number in the state variable `data`\n    function putBatch(\n        bytes32[] memory keys,\n        bytes32[] memory values)\n    public\n    {\n        for (uint i = 0; i < keys.length; i++) {\n            Value memory v = Value(block.number,values[i]);\n\n            if(data[keys[i]].blocknumber == 0) {\n                keyList.push(keys[i]);\n            }\n\n            data[keys[i]] = v;\n        }\n    }\n\n    function remove(\n        bytes32 key)\n    public\n    {\n        // remove from keyList: find index, then swap with last element, then call pop()\n        uint size = keyList.length;\n        uint index = type(uint256).max;\n\n        for(uint i=0; i<size; i++) {\n            if(keyList[i] == key) {\n                index = i;\n                break;\n            }\n        }\n\n        if(index == type(uint256).max) {\n            // key not found\n            return;\n        }\n\n        keyList[index] = keyList[size - 1]; // move last element to position of key to delete\n        keyList.pop();\n\n        // delete from data\n        delete data[key];\n    }\n\n    function tableScan()\n    public\n    view\n    returns (bytes32[] memory keys, bytes32[] memory values)\n    {\n        uint size = keyList.length;\n        keys = new bytes32[](size);\n        values = new bytes32[](size);\n\n        for(uint i=0; i<size; i++) {\n            keys[i] = keyList[i];\n            values[i] = data[keyList[i]].value;\n        }\n\n        return (keys, values);\n    }\n\n    function get(\n        bytes32 key)\n    public\n    view\n    returns (bytes32 value, uint blocknumber)\n    {\n        Value memory v = data[key];\n        value = v.value;\n        blocknumber = v.blocknumber;\n\n        // check if KV exists\n        require(blocknumber > 0);\n\n        return (value, blocknumber);\n    }\n\n    function getBatch(\n        bytes32[] memory keys)\n    public\n    view\n    returns (bytes32[] memory values, uint[] memory blocknumbers)\n    {\n        uint length = keys.length;\n        values = new bytes32[](length);\n        blocknumbers = new uint[](length);\n        for (uint i = 0; i < length; i++) {\n            Value memory v = data[keys[i]];\n            values[i] = v.value;\n            blocknumbers[i] = v.blocknumber;\n        }\n        return (values, blocknumbers);\n    }\n\n    function drop()\n    public\n    {\n        selfdestruct(msg.sender);\n    }\n\n}\n",
  "sourcePath": "/home/julian/Uni/DMPR/truffle/testProject/contracts/KVStore.sol",
  "compiler": {
    "name": "solc",
    "version": "0.6.8+commit.0bbfe453.Emscripten.clang"
  },
  "schemaVersion": "3.2.0",
  "updatedAt": "2020-06-22T22:17:13.401Z",
  "devdoc": {
    "author": "melhindi",
    "methods": {
      "put(bytes32,bytes32)": {
        "details": "stores the number in the state variable `data`",
        "params": {
          "key": "the new key to store",
          "value": "the value corresponding to the key"
        }
      },
      "putBatch(bytes32[],bytes32[])": {
        "details": "stores the number in the state variable `data`",
        "params": {
          "keys": "An array of keys to store",
          "values": "An array of values correpsonding to the keys,  thereby keys[i] should correspond to values[i]"
        }
      }
    },
    "title": "A key-value storage contract with a batch interface"
  },
  "userdoc": {
    "methods": {
      "put(bytes32,bytes32)": {
        "notice": "Store the pair key:value in the storage."
      },
      "putBatch(bytes32[],bytes32[])": {
        "notice": "Stores multiplie key:value pairs in the storage."
      }
    }
  }
}