{
  "contractName": "KVStore",
  "abi": [
    {
      "inputs": [
        {
          "internalType": "bytes32",
          "name": "key",
          "type": "bytes32"
        },
        {
          "internalType": "bytes32",
          "name": "value",
          "type": "bytes32"
        },
        {
          "internalType": "bytes16",
          "name": "txId",
          "type": "bytes16"
        }
      ],
      "name": "put",
      "outputs": [],
      "stateMutability": "nonpayable",
      "type": "function"
    },
    {
      "inputs": [
        {
          "internalType": "bytes32",
          "name": "key",
          "type": "bytes32"
        },
        {
          "internalType": "bytes32",
          "name": "value",
          "type": "bytes32"
        }
      ],
      "name": "put",
      "outputs": [],
      "stateMutability": "nonpayable",
      "type": "function"
    },
    {
      "inputs": [
        {
          "internalType": "bytes16",
          "name": "txId",
          "type": "bytes16"
        }
      ],
      "name": "clean",
      "outputs": [],
      "stateMutability": "nonpayable",
      "type": "function"
    },
    {
      "inputs": [
        {
          "internalType": "bytes16",
          "name": "txId",
          "type": "bytes16"
        }
      ],
      "name": "commit",
      "outputs": [],
      "stateMutability": "nonpayable",
      "type": "function"
    },
    {
      "inputs": [
        {
          "internalType": "bytes32[]",
          "name": "keys",
          "type": "bytes32[]"
        },
        {
          "internalType": "bytes32[]",
          "name": "values",
          "type": "bytes32[]"
        },
        {
          "internalType": "bytes16",
          "name": "txId",
          "type": "bytes16"
        }
      ],
      "name": "putBatch",
      "outputs": [],
      "stateMutability": "nonpayable",
      "type": "function"
    },
    {
      "inputs": [
        {
          "internalType": "bytes32[]",
          "name": "keys",
          "type": "bytes32[]"
        },
        {
          "internalType": "bytes32[]",
          "name": "values",
          "type": "bytes32[]"
        }
      ],
      "name": "putBatch",
      "outputs": [],
      "stateMutability": "nonpayable",
      "type": "function"
    },
    {
      "inputs": [
        {
          "internalType": "bytes32",
          "name": "key",
          "type": "bytes32"
        },
        {
          "internalType": "bytes16",
          "name": "txId",
          "type": "bytes16"
        }
      ],
      "name": "remove",
      "outputs": [],
      "stateMutability": "nonpayable",
      "type": "function"
    },
    {
      "inputs": [
        {
          "internalType": "bytes32",
          "name": "key",
          "type": "bytes32"
        }
      ],
      "name": "remove",
      "outputs": [],
      "stateMutability": "nonpayable",
      "type": "function"
    },
    {
      "inputs": [
        {
          "internalType": "bytes32[]",
          "name": "keys",
          "type": "bytes32[]"
        }
      ],
      "name": "removeBatch",
      "outputs": [],
      "stateMutability": "nonpayable",
      "type": "function"
    },
    {
      "inputs": [
        {
          "internalType": "bytes32[]",
          "name": "keys",
          "type": "bytes32[]"
        },
        {
          "internalType": "bytes16",
          "name": "txId",
          "type": "bytes16"
        }
      ],
      "name": "removeBatch",
      "outputs": [],
      "stateMutability": "nonpayable",
      "type": "function"
    },
    {
      "inputs": [],
      "name": "tableScan",
      "outputs": [
        {
          "internalType": "bytes32[]",
          "name": "keys",
          "type": "bytes32[]"
        },
        {
          "internalType": "bytes32[]",
          "name": "values",
          "type": "bytes32[]"
        }
      ],
      "stateMutability": "view",
      "type": "function"
    },
    {
      "inputs": [
        {
          "internalType": "bytes16",
          "name": "txid",
          "type": "bytes16"
        }
      ],
      "name": "getFirstTxOp",
      "outputs": [
        {
          "internalType": "bytes32",
          "name": "key",
          "type": "bytes32"
        },
        {
          "internalType": "bytes32",
          "name": "value",
          "type": "bytes32"
        },
        {
          "internalType": "bool",
          "name": "deleteEntry",
          "type": "bool"
        }
      ],
      "stateMutability": "view",
      "type": "function"
    },
    {
      "inputs": [
        {
          "internalType": "bytes32",
          "name": "key",
          "type": "bytes32"
        }
      ],
      "name": "get",
      "outputs": [
        {
          "internalType": "bytes32",
          "name": "value",
          "type": "bytes32"
        },
        {
          "internalType": "uint256",
          "name": "blocknumber",
          "type": "uint256"
        }
      ],
      "stateMutability": "view",
      "type": "function"
    },
    {
      "inputs": [
        {
          "internalType": "bytes32[]",
          "name": "keys",
          "type": "bytes32[]"
        }
      ],
      "name": "getBatch",
      "outputs": [
        {
          "internalType": "bytes32[]",
          "name": "values",
          "type": "bytes32[]"
        },
        {
          "internalType": "uint256[]",
          "name": "blocknumbers",
          "type": "uint256[]"
        }
      ],
      "stateMutability": "view",
      "type": "function"
    },
    {
      "inputs": [],
      "name": "drop",
      "outputs": [],
      "stateMutability": "nonpayable",
      "type": "function"
    }
  ],
  "bytecode": "0x608060405234801561001057600080fd5b506116bb806100206000396000f3fe608060405234801561001057600080fd5b50600436106100f55760003560e01c80638eaa6ac0116100975780639b36675c116100665780639b36675c14610716578063a23d74d314610862578063b3055e26146108c9578063f751cd8f14610970576100f5565b80638eaa6ac01461061d5780638fcdc9a91461066657806393ec62c1146106a757806395bc2673146106e8576100f5565b80633c58dd03116100d35780633c58dd03146103665780634c667080146103bb57806350a5fd68146103f3578063702de04514610548576100f5565b80630238a793146100fa57806329a32c0a146102635780632d9bb756146102ae575b600080fd5b6102616004803603606081101561011057600080fd5b810190808035906020019064010000000081111561012d57600080fd5b82018360208201111561013f57600080fd5b8035906020019184602083028401116401000000008311171561016157600080fd5b919080806020026020016040519081016040528093929190818152602001838360200280828437600081840152601f19601f820116905080830192505050505050509192919290803590602001906401000000008111156101c157600080fd5b8201836020820111156101d357600080fd5b803590602001918460208302840111640100000000831117156101f557600080fd5b919080806020026020016040519081016040528093929190818152602001838360200280828437600081840152601f19601f82011690508083019250505050505050919291929080356fffffffffffffffffffffffffffffffff1916906020019092919050505061097a565b005b6102ac6004803603604081101561027957600080fd5b810190808035906020019092919080356fffffffffffffffffffffffffffffffff19169060200190929190505050610a84565b005b610364600480360360208110156102c457600080fd5b81019080803590602001906401000000008111156102e157600080fd5b8201836020820111156102f357600080fd5b8035906020019184602083028401116401000000008311171561031557600080fd5b919080806020026020016040519081016040528093929190818152602001838360200280828437600081840152601f19601f820116905080830192505050505050509192919290505050610b4d565b005b6103b96004803603606081101561037c57600080fd5b81019080803590602001909291908035906020019092919080356fffffffffffffffffffffffffffffffff19169060200190929190505050610b89565b005b6103f1600480360360408110156103d157600080fd5b810190808035906020019092919080359060200190929190505050610c50565b005b6104a96004803603602081101561040957600080fd5b810190808035906020019064010000000081111561042657600080fd5b82018360208201111561043857600080fd5b8035906020019184602083028401116401000000008311171561045a57600080fd5b919080806020026020016040519081016040528093929190818152602001838360200280828437600081840152601f19601f820116905080830192505050505050509192919290505050610ce6565b604051808060200180602001838103835285818151815260200191508051906020019060200280838360005b838110156104f05780820151818401526020810190506104d5565b50505050905001838103825284818151815260200191508051906020019060200280838360005b83811015610532578082015181840152602081019050610517565b5050505090500194505050505060405180910390f35b61061b6004803603604081101561055e57600080fd5b810190808035906020019064010000000081111561057b57600080fd5b82018360208201111561058d57600080fd5b803590602001918460208302840111640100000000831117156105af57600080fd5b919080806020026020016040519081016040528093929190818152602001838360200280828437600081840152601f19601f82011690508083019250505050505050919291929080356fffffffffffffffffffffffffffffffff19169060200190929190505050610e32565b005b6106496004803603602081101561063357600080fd5b8101908080359060200190929190505050610f2b565b604051808381526020018281526020019250505060405180910390f35b6106a56004803603602081101561067c57600080fd5b8101908080356fffffffffffffffffffffffffffffffff19169060200190929190505050610f90565b005b6106e6600480360360208110156106bd57600080fd5b8101908080356fffffffffffffffffffffffffffffffff191690602001909291905050506110f7565b005b610714600480360360208110156106fe57600080fd5b810190808035906020019092919050505061113f565b005b6108606004803603604081101561072c57600080fd5b810190808035906020019064010000000081111561074957600080fd5b82018360208201111561075b57600080fd5b8035906020019184602083028401116401000000008311171561077d57600080fd5b919080806020026020016040519081016040528093929190818152602001838360200280828437600081840152601f19601f820116905080830192505050505050509192919290803590602001906401000000008111156107dd57600080fd5b8201836020820111156107ef57600080fd5b8035906020019184602083028401116401000000008311171561081157600080fd5b919080806020026020016040519081016040528093929190818152602001838360200280828437600081840152601f19601f820116905080830192505050505050509192919290505050611261565b005b6108a16004803603602081101561087857600080fd5b8101908080356fffffffffffffffffffffffffffffffff19169060200190929190505050611360565b6040518084815260200183815260200182151515158152602001935050505060405180910390f35b6108d1611484565b604051808060200180602001838103835285818151815260200191508051906020019060200280838360005b838110156109185780820151818401526020810190506108fd565b50505050905001838103825284818151815260200191508051906020019060200280838360005b8381101561095a57808201518184015260208101905061093f565b5050505090500194505050505060405180910390f35b6109786115bf565b005b60008090505b8351811015610a7e576109916115d8565b60405180606001604052808684815181106109a857fe5b602002602001015181526020018584815181106109c157fe5b6020026020010151815260200160001515815250905060026000846fffffffffffffffffffffffffffffffff19166fffffffffffffffffffffffffffffffff19168152602001908152602001600020819080600181540180825580915050600190039060005260206000209060030201600090919091909150600082015181600001556020820151816001015560408201518160020160006101000a81548160ff0219169083151502179055505050508080600101915050610980565b50505050565b610a8c6115d8565b60405180606001604052808481526020016000801b815260200160011515815250905060026000836fffffffffffffffffffffffffffffffff19166fffffffffffffffffffffffffffffffff19168152602001908152602001600020819080600181540180825580915050600190039060005260206000209060030201600090919091909150600082015181600001556020820151816001015560408201518160020160006101000a81548160ff0219169083151502179055505050505050565b60008090505b8151811015610b8557610b78828281518110610b6b57fe5b602002602001015161113f565b8080600101915050610b53565b5050565b610b916115d8565b604051806060016040528085815260200184815260200160001515815250905060026000836fffffffffffffffffffffffffffffffff19166fffffffffffffffffffffffffffffffff19168152602001908152602001600020819080600181540180825580915050600190039060005260206000209060030201600090919091909150600082015181600001556020820151816001015560408201518160020160006101000a81548160ff021916908315150217905550505050505050565b610c58611601565b60405180604001604052804381526020018381525090506000806000858152602001908152602001600020600001541415610cb75760018390806001815401808255809150506001900390600052602060002001600090919091909150555b806000808581526020019081526020016000206000820151816000015560208201518160010155905050505050565b6060806000835190508067ffffffffffffffff81118015610d0657600080fd5b50604051908082528060200260200182016040528015610d355781602001602082028036833780820191505090505b5092508067ffffffffffffffff81118015610d4f57600080fd5b50604051908082528060200260200182016040528015610d7e5781602001602082028036833780820191505090505b50915060008090505b81811015610e2557610d97611601565b600080878481518110610da657fe5b602002602001015181526020019081526020016000206040518060400160405290816000820154815260200160018201548152505090508060200151858381518110610dee57fe5b6020026020010181815250508060000151848381518110610e0b57fe5b602002602001018181525050508080600101915050610d87565b5082829250925050915091565b60008090505b8251811015610f2657610e496115d8565b6040518060600160405280858481518110610e6057fe5b602002602001015181526020016000801b815260200160011515815250905060026000846fffffffffffffffffffffffffffffffff19166fffffffffffffffffffffffffffffffff19168152602001908152602001600020819080600181540180825580915050600190039060005260206000209060030201600090919091909150600082015181600001556020820151816001015560408201518160020160006101000a81548160ff0219169083151502179055505050508080600101915050610e38565b505050565b600080610f36611601565b600080858152602001908152602001600020604051806040016040529081600082015481526020016001820154815250509050806020015192508060000151915060008211610f8457600080fd5b82829250925050915091565b606060026000836fffffffffffffffffffffffffffffffff19166fffffffffffffffffffffffffffffffff19168152602001908152602001600020805480602002602001604051908101604052809291908181526020016000905b8282101561104c578382906000526020600020906003020160405180606001604052908160008201548152602001600182015481526020016002820160009054906101000a900460ff16151515158152505081526020019060010190610feb565b50505050905060008090505b81518110156110e95781818151811061106d57fe5b602002602001015160400151156110a35761109e82828151811061108d57fe5b60200260200101516000015161113f565b6110dc565b6110db8282815181106110b257fe5b6020026020010151600001518383815181106110ca57fe5b602002602001015160200151610c50565b5b8080600101915050611058565b506110f3826110f7565b5050565b60026000826fffffffffffffffffffffffffffffffff19166fffffffffffffffffffffffffffffffff19168152602001908152602001600020600061113c919061161e565b50565b6000600180549050905060007fffffffffffffffffffffffffffffffffffffffffffffffffffffffffffffffff905060008090505b828110156111b057836001828154811061118a57fe5b906000526020600020015414156111a3578091506111b0565b8080600101915050611174565b507fffffffffffffffffffffffffffffffffffffffffffffffffffffffffffffffff8114156111e057505061125e565b6001808303815481106111ef57fe5b90600052602060002001546001828154811061120757fe5b9060005260206000200181905550600180548061122057fe5b600190038181906000526020600020016000905590556000808481526020019081526020016000206000808201600090556001820160009055505050505b50565b60008090505b825181101561135b57611278611601565b604051806040016040528043815260200184848151811061129557fe5b6020026020010151815250905060008060008685815181106112b357fe5b602002602001015181526020019081526020016000206000015414156113105760018483815181106112e157fe5b602002602001015190806001815401808255809150506001900390600052602060002001600090919091909150555b8060008086858151811061132057fe5b602002602001015181526020019081526020016000206000820151816000015560208201518160010155905050508080600101915050611267565b505050565b600080600060026000856fffffffffffffffffffffffffffffffff19166fffffffffffffffffffffffffffffffff191681526020019081526020016000206000815481106113aa57fe5b906000526020600020906003020160000154925060026000856fffffffffffffffffffffffffffffffff19166fffffffffffffffffffffffffffffffff1916815260200190815260200160002060008154811061140357fe5b906000526020600020906003020160010154915060026000856fffffffffffffffffffffffffffffffff19166fffffffffffffffffffffffffffffffff1916815260200190815260200160002060008154811061145c57fe5b906000526020600020906003020160020160009054906101000a900460ff1690509193909250565b606080600060018054905090508067ffffffffffffffff811180156114a857600080fd5b506040519080825280602002602001820160405280156114d75781602001602082028036833780820191505090505b5092508067ffffffffffffffff811180156114f157600080fd5b506040519080825280602002602001820160405280156115205781602001602082028036833780820191505090505b50915060008090505b818110156115b3576001818154811061153e57fe5b906000526020600020015484828151811061155557fe5b6020026020010181815250506000806001838154811061157157fe5b906000526020600020015481526020019081526020016000206001015483828151811061159a57fe5b6020026020010181815250508080600101915050611529565b50828292509250509091565b3373ffffffffffffffffffffffffffffffffffffffff16ff5b604051806060016040528060008019168152602001600080191681526020016000151581525090565b604051806040016040528060008152602001600080191681525090565b508054600082556003029060005260206000209081019061163f9190611642565b50565b61168291905b8082111561167e5760008082016000905560018201600090556002820160006101000a81549060ff021916905550600301611648565b5090565b9056fea2646970667358221220510924e0130242db4eef696aa3b38f57eb5d21243e622748e4379a9486858e4864736f6c63430006080033",
  "immutableReferences": {},
  "source": "pragma solidity ^0.6.8;\n\n/// @author melhindi\n/// @title A key-value storage contract with a batch interface\ncontract KVStore {\n\n    // tightly packed struct\n    struct Value\n    {\n        uint blocknumber; // indicates when value was written\n        bytes32 value;\n    }\n\n    struct TxOperation {\n        bytes32 key;\n        bytes32 value;\n        bool deleteEntry;\n    }\n\n    mapping(bytes32 => Value) private data;         // data store\n    bytes32[] internal keyList;                     // list of keys of data\n    mapping(bytes16 => TxOperation[]) private txBuffer; // buffer for transactions: maps transaction id to list of operations\n\n    /// Store the pair key:value in the storage.\n    /// @param key the new key to store\n    /// @param value the value corresponding to the key\n    /// @dev stores the number in the state variable `data`\n    function put(\n        bytes32 key,\n        bytes32 value)\n    public\n    {\n        Value memory v = Value(block.number,value);\n\n        if(data[key].blocknumber == 0) {\n            keyList.push(key);\n        }\n\n        // persist data in blockchain\n        data[key] = v;\n    }\n\n    function put(\n        bytes32 key,\n        bytes32 value,\n        bytes16 txId)\n    public\n    {\n        TxOperation memory v = TxOperation(key,value, false);\n        txBuffer[txId].push(v);\n    }\n\n    function clean(\n        bytes16 txId)\n    public\n    {\n        delete txBuffer[txId];\n    }\n\n    function commit(\n        bytes16 txId)\n    external\n    {\n        TxOperation[] memory values = txBuffer[txId];\n\n        for (uint i = 0; i < values.length; i++) {\n            if(values[i].deleteEntry) {\n                remove(values[i].key);\n            } else {\n                put(values[i].key, values[i].value);\n            }\n        }\n\n        clean(txId);\n    }\n\n    /// Stores multiplie key:value pairs in the storage.\n    /// @param keys An array of keys to store\n    /// @param values An array of values correpsonding to the keys,\n    ///  thereby keys[i] should correspond to values[i]\n    /// @dev stores the number in the state variable `data`\n    function putBatch(\n        bytes32[] memory keys,\n        bytes32[] memory values)\n    public\n    {\n        for (uint i = 0; i < keys.length; i++) {\n            Value memory v = Value(block.number,values[i]);\n\n            if(data[keys[i]].blocknumber == 0) {\n                keyList.push(keys[i]);\n            }\n\n            data[keys[i]] = v;\n        }\n    }\n\n    function putBatch(\n        bytes32[] memory keys,\n        bytes32[] memory values,\n        bytes16 txId)\n    public\n    {\n        for (uint i = 0; i < keys.length; i++) {\n            TxOperation memory v = TxOperation(keys[i],values[i], false);\n            txBuffer[txId].push(v);\n        }\n    }\n\n    function remove(\n        bytes32 key)\n    public\n    {\n        // remove from keyList: find index, then swap with last element, then call pop()\n        uint size = keyList.length;\n        uint index = type(uint256).max;\n\n        for(uint i=0; i<size; i++) {\n            if(keyList[i] == key) {\n                index = i;\n                break;\n            }\n        }\n\n        if(index == type(uint256).max) {\n            // key not found\n            return;\n        }\n\n        keyList[index] = keyList[size - 1]; // move last element to position of key to delete\n        keyList.pop();\n\n        // delete from data\n        delete data[key];\n    }\n\n    function remove(\n        bytes32 key,\n        bytes16 txId)\n    public\n    {\n        TxOperation memory v = TxOperation(key, 0, true);\n        txBuffer[txId].push(v);\n    }\n\n    /// Removes multiple key:value pairs in the storage.\n    /// @param keys An array of keys to remove\n    function removeBatch(\n        bytes32[] memory keys)\n    public\n    {\n        for (uint i = 0; i < keys.length; i++) {\n            remove(keys[i]);\n        }\n    }\n\n    function removeBatch(\n        bytes32[] memory keys,\n        bytes16 txId)\n    public\n    {\n        for (uint i = 0; i < keys.length; i++) {\n            TxOperation memory v = TxOperation(keys[i], 0, true);\n            txBuffer[txId].push(v);\n        }\n    }\n\n    function tableScan()\n    public\n    view\n    returns (bytes32[] memory keys, bytes32[] memory values)\n    {\n        uint size = keyList.length;\n        keys = new bytes32[](size);\n        values = new bytes32[](size);\n\n        for(uint i=0; i<size; i++) {\n            keys[i] = keyList[i];\n            values[i] = data[keyList[i]].value;\n        }\n\n        return (keys, values);\n    }\n\n    // For debugging only\n    function getFirstTxOp(bytes16 txid)\n    public\n    view\n    returns (bytes32 key, bytes32 value, bool deleteEntry)\n    {\n        key = txBuffer[txid][0].key;\n        value = txBuffer[txid][0].value;\n        deleteEntry = txBuffer[txid][0].deleteEntry;\n    }\n\n    function get(\n        bytes32 key)\n    public\n    view\n    returns (bytes32 value, uint blocknumber)\n    {\n        Value memory v = data[key];\n        value = v.value;\n        blocknumber = v.blocknumber;\n\n        // check if KV exists\n        require(blocknumber > 0);\n\n        return (value, blocknumber);\n    }\n\n    function getBatch(\n        bytes32[] memory keys)\n    public\n    view\n    returns (bytes32[] memory values, uint[] memory blocknumbers)\n    {\n        uint length = keys.length;\n        values = new bytes32[](length);\n        blocknumbers = new uint[](length);\n        for (uint i = 0; i < length; i++) {\n            Value memory v = data[keys[i]];\n            values[i] = v.value;\n            blocknumbers[i] = v.blocknumber;\n        }\n        return (values, blocknumbers);\n    }\n\n    function drop()\n    public\n    {\n        selfdestruct(msg.sender);\n    }\n\n}\n\n",
  "sourcePath": "/home/julian/Uni/DMPR/truffle/testProject/contracts/KVStore.sol",
  "compiler": {
    "name": "solc",
    "version": "0.6.8+commit.0bbfe453.Emscripten.clang"
  },
  "schemaVersion": "3.2.0",
  "updatedAt": "2020-07-30T23:10:33.415Z",
  "devdoc": {
    "author": "melhindi",
    "methods": {
      "put(bytes32,bytes32)": {
        "details": "stores the number in the state variable `data`",
        "params": {
          "key": "the new key to store",
          "value": "the value corresponding to the key"
        }
      },
      "putBatch(bytes32[],bytes32[])": {
        "details": "stores the number in the state variable `data`",
        "params": {
          "keys": "An array of keys to store",
          "values": "An array of values correpsonding to the keys,  thereby keys[i] should correspond to values[i]"
        }
      },
      "removeBatch(bytes32[])": {
        "params": {
          "keys": "An array of keys to remove"
        }
      }
    },
    "title": "A key-value storage contract with a batch interface"
  },
  "userdoc": {
    "methods": {
      "put(bytes32,bytes32)": {
        "notice": "Store the pair key:value in the storage."
      },
      "putBatch(bytes32[],bytes32[])": {
        "notice": "Stores multiplie key:value pairs in the storage."
      },
      "removeBatch(bytes32[])": {
        "notice": "Removes multiple key:value pairs in the storage."
      }
    }
  }
}