{
  "contractName": "KVStore",
  "abi": [
    {
      "inputs": [
        {
          "internalType": "bytes32",
          "name": "key",
          "type": "bytes32"
        },
        {
          "internalType": "bytes32",
          "name": "value",
          "type": "bytes32"
        },
        {
          "internalType": "bytes16",
          "name": "txId",
          "type": "bytes16"
        }
      ],
      "name": "put",
      "outputs": [],
      "stateMutability": "nonpayable",
      "type": "function"
    },
    {
      "inputs": [
        {
          "internalType": "bytes32",
          "name": "key",
          "type": "bytes32"
        },
        {
          "internalType": "bytes32",
          "name": "value",
          "type": "bytes32"
        }
      ],
      "name": "put",
      "outputs": [],
      "stateMutability": "nonpayable",
      "type": "function"
    },
    {
      "inputs": [
        {
          "internalType": "bytes16",
          "name": "txId",
          "type": "bytes16"
        }
      ],
      "name": "clean",
      "outputs": [],
      "stateMutability": "nonpayable",
      "type": "function"
    },
    {
      "inputs": [
        {
          "internalType": "bytes16",
          "name": "txId",
          "type": "bytes16"
        }
      ],
      "name": "commit",
      "outputs": [],
      "stateMutability": "nonpayable",
      "type": "function"
    },
    {
      "inputs": [
        {
          "internalType": "bytes32[]",
          "name": "keys",
          "type": "bytes32[]"
        },
        {
          "internalType": "bytes32[]",
          "name": "values",
          "type": "bytes32[]"
        }
      ],
      "name": "putBatch",
      "outputs": [],
      "stateMutability": "nonpayable",
      "type": "function"
    },
    {
      "inputs": [
        {
          "internalType": "bytes32",
          "name": "key",
          "type": "bytes32"
        }
      ],
      "name": "remove",
      "outputs": [],
      "stateMutability": "nonpayable",
      "type": "function"
    },
    {
      "inputs": [],
      "name": "tableScan",
      "outputs": [
        {
          "internalType": "bytes32[]",
          "name": "keys",
          "type": "bytes32[]"
        },
        {
          "internalType": "bytes32[]",
          "name": "values",
          "type": "bytes32[]"
        }
      ],
      "stateMutability": "view",
      "type": "function",
      "constant": true
    },
    {
      "inputs": [
        {
          "internalType": "bytes32",
          "name": "key",
          "type": "bytes32"
        }
      ],
      "name": "get",
      "outputs": [
        {
          "internalType": "bytes32",
          "name": "value",
          "type": "bytes32"
        },
        {
          "internalType": "uint256",
          "name": "blocknumber",
          "type": "uint256"
        }
      ],
      "stateMutability": "view",
      "type": "function",
      "constant": true
    },
    {
      "inputs": [
        {
          "internalType": "bytes32[]",
          "name": "keys",
          "type": "bytes32[]"
        }
      ],
      "name": "getBatch",
      "outputs": [
        {
          "internalType": "bytes32[]",
          "name": "values",
          "type": "bytes32[]"
        },
        {
          "internalType": "uint256[]",
          "name": "blocknumbers",
          "type": "uint256[]"
        }
      ],
      "stateMutability": "view",
      "type": "function",
      "constant": true
    },
    {
      "inputs": [],
      "name": "drop",
      "outputs": [],
      "stateMutability": "nonpayable",
      "type": "function"
    }
  ],
  "bytecode": "0x608060405234801561001057600080fd5b50610dec806100206000396000f3fe608060405234801561001057600080fd5b506004361061009e5760003560e01c806393ec62c11161006657806393ec62c11461030f57806395bc2673146103505780639b36675c1461037e578063b3055e26146104ca578063f751cd8f146105715761009e565b80633c58dd03146100a35780634c667080146100f857806350a5fd68146101305780638eaa6ac0146102855780638fcdc9a9146102ce575b600080fd5b6100f6600480360360608110156100b957600080fd5b81019080803590602001909291908035906020019092919080356fffffffffffffffffffffffffffffffff1916906020019092919050505061057b565b005b61012e6004803603604081101561010e57600080fd5b810190808035906020019092919080359060200190929190505050610619565b005b6101e66004803603602081101561014657600080fd5b810190808035906020019064010000000081111561016357600080fd5b82018360208201111561017557600080fd5b8035906020019184602083028401116401000000008311171561019757600080fd5b919080806020026020016040519081016040528093929190818152602001838360200280828437600081840152601f19601f8201169050808301925050505050505091929192905050506106af565b604051808060200180602001838103835285818151815260200191508051906020019060200280838360005b8381101561022d578082015181840152602081019050610212565b50505050905001838103825284818151815260200191508051906020019060200280838360005b8381101561026f578082015181840152602081019050610254565b5050505090500194505050505060405180910390f35b6102b16004803603602081101561029b57600080fd5b81019080803590602001909291905050506107fb565b604051808381526020018281526020019250505060405180910390f35b61030d600480360360208110156102e457600080fd5b8101908080356fffffffffffffffffffffffffffffffff19169060200190929190505050610860565b005b61034e6004803603602081101561032557600080fd5b8101908080356fffffffffffffffffffffffffffffffff19169060200190929190505050610969565b005b61037c6004803603602081101561036657600080fd5b81019080803590602001909291905050506109b1565b005b6104c86004803603604081101561039457600080fd5b81019080803590602001906401000000008111156103b157600080fd5b8201836020820111156103c357600080fd5b803590602001918460208302840111640100000000831117156103e557600080fd5b919080806020026020016040519081016040528093929190818152602001838360200280828437600081840152601f19601f8201169050808301925050505050505091929192908035906020019064010000000081111561044557600080fd5b82018360208201111561045757600080fd5b8035906020019184602083028401116401000000008311171561047957600080fd5b919080806020026020016040519081016040528093929190818152602001838360200280828437600081840152601f19601f820116905080830192505050505050509192919290505050610ad3565b005b6104d2610bd2565b604051808060200180602001838103835285818151815260200191508051906020019060200280838360005b838110156105195780820151818401526020810190506104fe565b50505050905001838103825284818151815260200191508051906020019060200280838360005b8381101561055b578082015181840152602081019050610540565b5050505090500194505050505060405180910390f35b610579610d0d565b005b610583610d26565b604051806040016040528085815260200184815250905060026000836fffffffffffffffffffffffffffffffff19166fffffffffffffffffffffffffffffffff191681526020019081526020016000208190806001815401808255809150506001900390600052602060002090600202016000909190919091506000820151816000015560208201518160010155505050505050565b610621610d46565b604051806040016040528043815260200183815250905060008060008581526020019081526020016000206000015414156106805760018390806001815401808255809150506001900390600052602060002001600090919091909150555b806000808581526020019081526020016000206000820151816000015560208201518160010155905050505050565b6060806000835190508067ffffffffffffffff811180156106cf57600080fd5b506040519080825280602002602001820160405280156106fe5781602001602082028036833780820191505090505b5092508067ffffffffffffffff8111801561071857600080fd5b506040519080825280602002602001820160405280156107475781602001602082028036833780820191505090505b50915060008090505b818110156107ee57610760610d46565b60008087848151811061076f57fe5b6020026020010151815260200190815260200160002060405180604001604052908160008201548152602001600182015481525050905080602001518583815181106107b757fe5b60200260200101818152505080600001518483815181106107d457fe5b602002602001018181525050508080600101915050610750565b5082829250925050915091565b600080610806610d46565b60008085815260200190815260200160002060405180604001604052908160008201548152602001600182015481525050905080602001519250806000015191506000821161085457600080fd5b82829250925050915091565b606060026000836fffffffffffffffffffffffffffffffff19166fffffffffffffffffffffffffffffffff19168152602001908152602001600020805480602002602001604051908101604052809291908181526020016000905b82821015610901578382906000526020600020906002020160405180604001604052908160008201548152602001600182015481525050815260200190600101906108bb565b50505050905060008090505b815181101561095b5761094e82828151811061092557fe5b60200260200101516000015183838151811061093d57fe5b602002602001015160200151610619565b808060010191505061090d565b5061096582610969565b5050565b60026000826fffffffffffffffffffffffffffffffff19166fffffffffffffffffffffffffffffffff1916815260200190815260200160002060006109ae9190610d63565b50565b6000600180549050905060007fffffffffffffffffffffffffffffffffffffffffffffffffffffffffffffffff905060008090505b82811015610a225783600182815481106109fc57fe5b90600052602060002001541415610a1557809150610a22565b80806001019150506109e6565b507fffffffffffffffffffffffffffffffffffffffffffffffffffffffffffffffff811415610a52575050610ad0565b600180830381548110610a6157fe5b906000526020600020015460018281548110610a7957fe5b90600052602060002001819055506001805480610a9257fe5b600190038181906000526020600020016000905590556000808481526020019081526020016000206000808201600090556001820160009055505050505b50565b60008090505b8251811015610bcd57610aea610d46565b6040518060400160405280438152602001848481518110610b0757fe5b602002602001015181525090506000806000868581518110610b2557fe5b60200260200101518152602001908152602001600020600001541415610b82576001848381518110610b5357fe5b602002602001015190806001815401808255809150506001900390600052602060002001600090919091909150555b80600080868581518110610b9257fe5b602002602001015181526020019081526020016000206000820151816000015560208201518160010155905050508080600101915050610ad9565b505050565b606080600060018054905090508067ffffffffffffffff81118015610bf657600080fd5b50604051908082528060200260200182016040528015610c255781602001602082028036833780820191505090505b5092508067ffffffffffffffff81118015610c3f57600080fd5b50604051908082528060200260200182016040528015610c6e5781602001602082028036833780820191505090505b50915060008090505b81811015610d015760018181548110610c8c57fe5b9060005260206000200154848281518110610ca357fe5b60200260200101818152505060008060018381548110610cbf57fe5b9060005260206000200154815260200190815260200160002060010154838281518110610ce857fe5b6020026020010181815250508080600101915050610c77565b50828292509250509091565b3373ffffffffffffffffffffffffffffffffffffffff16ff5b604051806040016040528060008019168152602001600080191681525090565b604051806040016040528060008152602001600080191681525090565b5080546000825560020290600052602060002090810190610d849190610d87565b50565b610db391905b80821115610daf57600080820160009055600182016000905550600201610d8d565b5090565b9056fea2646970667358221220d5f2d6119b35e984e1af1d24ef107033d4ee7bbc46de0d26f0bdbe0153a7df7064736f6c634300060b0033",
  "immutableReferences": {},
  "source": "pragma solidity ^0.6.8;\n\n/// @author melhindi\n/// @title A key-value storage contract with a batch interface\ncontract KVStore {\n\n    // tightly packed struct\n    struct Value\n    {\n        uint blocknumber; // indicates when value was written\n        bytes32 value;\n    }\n\n    struct TxValue {\n        bytes32 key;\n        bytes32 value;\n    }\n\n    mapping(bytes32 => Value) private data;         // data store\n    bytes32[] internal keyList;                     // list of keys of data\n    mapping(bytes16 => TxValue[]) private txBuffer; // buffer for transactions\n\n    /// Store the pair key:value in the storage.\n    /// @param key the new key to store\n    /// @param value the value corresponding to the key\n    /// @dev stores the number in the state variable `data`\n    function put(\n        bytes32 key,\n        bytes32 value)\n    public\n    {\n        Value memory v = Value(block.number,value);\n\n        if(data[key].blocknumber == 0) {\n            keyList.push(key);\n        }\n\n        // persist data in blockchain\n        data[key] = v;\n    }\n\n    function put(\n        bytes32 key,\n        bytes32 value,\n        bytes16 txId)\n    public\n    {\n        TxValue memory v = TxValue(key,value);\n        txBuffer[txId].push(v);\n    }\n\n    function clean(\n        bytes16 txId)\n    public\n    {\n        delete txBuffer[txId];\n    }\n\n    function commit(\n        bytes16 txId)\n    external\n    {\n        TxValue[] memory values = txBuffer[txId];\n\n        for (uint i = 0; i < values.length; i++) {\n            put(values[i].key, values[i].value);\n        }\n        \n        clean(txId);\n    }\n\n    /// Stores multiplie key:value pairs in the storage.\n    /// @param keys An array of keys to store\n    /// @param values An array of values correpsonding to the keys,\n    ///  thereby keys[i] should correspond to values[i]\n    /// @dev stores the number in the state variable `data`\n    function putBatch(\n        bytes32[] memory keys,\n        bytes32[] memory values)\n    public\n    {\n        for (uint i = 0; i < keys.length; i++) {\n            Value memory v = Value(block.number,values[i]);\n\n            if(data[keys[i]].blocknumber == 0) {\n                keyList.push(keys[i]);\n            }\n\n            data[keys[i]] = v;\n        }\n    }\n\n    function remove(\n        bytes32 key)\n    public\n    {\n        // remove from keyList: find index, then swap with last element, then call pop()\n        uint size = keyList.length;\n        uint index = type(uint256).max;\n\n        for(uint i=0; i<size; i++) {\n            if(keyList[i] == key) {\n                index = i;\n                break;\n            }\n        }\n\n        if(index == type(uint256).max) {\n            // key not found\n            return;\n        }\n\n        keyList[index] = keyList[size - 1]; // move last element to position of key to delete\n        keyList.pop();\n\n        // delete from data\n        delete data[key];\n    }\n\n    function tableScan()\n    public\n    view\n    returns (bytes32[] memory keys, bytes32[] memory values)\n    {\n        uint size = keyList.length;\n        keys = new bytes32[](size);\n        values = new bytes32[](size);\n\n        for(uint i=0; i<size; i++) {\n            keys[i] = keyList[i];\n            values[i] = data[keyList[i]].value;\n        }\n\n        return (keys, values);\n    }\n\n    function get(\n        bytes32 key)\n    public\n    view\n    returns (bytes32 value, uint blocknumber)\n    {\n        Value memory v = data[key];\n        value = v.value;\n        blocknumber = v.blocknumber;\n\n        // check if KV exists\n        require(blocknumber > 0);\n\n        return (value, blocknumber);\n    }\n\n    function getBatch(\n        bytes32[] memory keys)\n    public\n    view\n    returns (bytes32[] memory values, uint[] memory blocknumbers)\n    {\n        uint length = keys.length;\n        values = new bytes32[](length);\n        blocknumbers = new uint[](length);\n        for (uint i = 0; i < length; i++) {\n            Value memory v = data[keys[i]];\n            values[i] = v.value;\n            blocknumbers[i] = v.blocknumber;\n        }\n        return (values, blocknumbers);\n    }\n\n    function drop()\n    public\n    {\n        selfdestruct(msg.sender);\n    }\n\n}\n",
  "sourcePath": "/home/pascal/projects/truffle/contracts/TableStorage.sol",
  "compiler": {
    "name": "solc",
    "version": "0.6.11+commit.5ef660b1.Emscripten.clang"
  },
  "schemaVersion": "3.2.0",
  "updatedAt": "2020-07-18T17:51:25.890Z",
  "networkType": "ethereum",
  "devdoc": {
    "author": "melhindi",
    "kind": "dev",
    "methods": {
      "put(bytes32,bytes32)": {
        "details": "stores the number in the state variable `data`",
        "params": {
          "key": "the new key to store",
          "value": "the value corresponding to the key"
        }
      },
      "putBatch(bytes32[],bytes32[])": {
        "details": "stores the number in the state variable `data`",
        "params": {
          "keys": "An array of keys to store",
          "values": "An array of values correpsonding to the keys,  thereby keys[i] should correspond to values[i]"
        }
      }
    },
    "title": "A key-value storage contract with a batch interface",
    "version": 1
  },
  "userdoc": {
    "kind": "user",
    "methods": {
      "put(bytes32,bytes32)": {
        "notice": "Store the pair key:value in the storage."
      },
      "putBatch(bytes32[],bytes32[])": {
        "notice": "Stores multiplie key:value pairs in the storage."
      }
    },
    "version": 1
  }
}