{
  "contractName": "Transaction",
  "abi": [
    {
      "inputs": [
        {
          "internalType": "bytes16",
          "name": "txId",
          "type": "bytes16"
        },
        {
          "internalType": "address[]",
          "name": "stores",
          "type": "address[]"
        }
      ],
      "name": "commit",
      "outputs": [],
      "stateMutability": "nonpayable",
      "type": "function"
    }
  ],
  "bytecode": "0x608060405234801561001057600080fd5b50610206806100206000396000f3fe608060405234801561001057600080fd5b506004361061002b5760003560e01c8063f289d19914610030575b600080fd5b6101036004803603604081101561004657600080fd5b8101908080356fffffffffffffffffffffffffffffffff191690602001909291908035906020019064010000000081111561008057600080fd5b82018360208201111561009257600080fd5b803590602001918460208302840111640100000000831117156100b457600080fd5b919080806020026020016040519081016040528093929190818152602001838360200280828437600081840152601f19601f820116905080830192505050505050509192919290505050610105565b005b60008090505b81518110156101cb57600082828151811061012257fe5b602002602001015190508073ffffffffffffffffffffffffffffffffffffffff16638fcdc9a9856040518263ffffffff1660e01b815260040180826fffffffffffffffffffffffffffffffff19166fffffffffffffffffffffffffffffffff19168152602001915050600060405180830381600087803b1580156101a557600080fd5b505af11580156101b9573d6000803e3d6000fd5b5050505050808060010191505061010b565b50505056fea26469706673582212209f2e2ad10152f3c0338686b6833fc6fff94f7b20d6154294f24dc839f10f959664736f6c634300060b0033",
  "immutableReferences": {},
  "source": "pragma solidity ^0.6.8;\n\ncontract Transaction  {\n\n    function commit(\n        bytes16 txId,\n        address[] memory stores)\n    public\n    {\n\n        for (uint i = 0; i < stores.length; i++) {\n            KVStore kv = KVStore(stores[i]);\n            kv.commit(txId);\n        }\n\n    }\n\n}\n\ninterface KVStore {\n    function commit(bytes16 txId) external;\n}\n",
  "sourcePath": "/home/pascal/projects/truffle/contracts/Transaction.sol",
  "compiler": {
    "name": "solc",
    "version": "0.6.11+commit.5ef660b1.Emscripten.clang"
  },
  "schemaVersion": "3.2.0",
  "updatedAt": "2020-07-18T17:51:25.915Z",
  "networkType": "ethereum",
  "devdoc": {
    "kind": "dev",
    "methods": {},
    "version": 1
  },
  "userdoc": {
    "kind": "user",
    "methods": {},
    "version": 1
  }
}